:020000040800F2
:1000000028070020910500087D0100087F010008F5
:10001000810100088301000885010008000000003C
:100020000000000000000000000000008701000840
:1000300089010008000000008B0100088D01000804
:10004000AB050008AB050008AB050008AB050008D0
:10005000AB050008AB050008AB050008AB050008C0
:10006000AB050008AB050008AB050008AB050008B0
:10007000AB050008AB050008AB050008AB050008A0
:10008000AB050008AB050008AB050008AB05000890
:10009000AB050008AB050008AB050008AB05000880
:1000A000AB050008AB050008AB050008AB05000870
:1000B000AB050008AB050008AB050008AB05000860
:1000C000AB050008AB050008AB050008AB05000850
:1000D000AB050008AB050008AB050008AB05000840
:1000E000AB050008AB050008AB050008DFF810D031
:1000F00001F018FF0048004705010008AFF3008039
:100100002807002000F09EF94FF4E13000F0F0F9EC
:100110004FF47A7000F0C4F910480F4B43F2686452
:10012000C0E9004300210A4608461D5C401C2944E2
:10013000A042FADB094B002008334FF4AE741D5C7B
:10014000401C2A44A042FAD905A001F059FF4FF4FF
:10015000806000F064FFFEE700300008000000202F
:100160006F6C6473756D203D202558206469666648
:1001700073756D203D2025580D0A00007047FEE77D
:10018000FEE7FEE7FEE770477047704770470000E4
:100190000CB500214B4801910091026842F4803275
:1001A00002604FF4A063026802F400320092019AE8
:1001B000521C0192009A12B9019A9A42F3D1026834
:1001C000920333D5012100913F490A6842F01002A1
:1001D0000A600A6822F003020A600A6842F002021A
:1001E0000A604168416041684160416841F4806152
:1001F0004160416821F47C114160416841F4E8119B
:100200004160016841F08071016001688901FCD59D
:10021000416821F003014160416841F00201416001
:100220004168C1F381010229FAD10CBD00910CBDD6
:10023000244810B5016841F0010101604168234A7A
:10024000114041600168224A11400160016821F4B7
:1002500080210160416821F4FE0141604FF41F01DB
:100260008160FFF795FF1B494FF00060086010BDEB
:10027000144910B54868184A10F00C03174803D009
:10028000042B01D0082B0AD002604968134AC1F33D
:100290000311121D515C0268CA40026010BD4A6819
:1002A0004B6802F470124FF0020413F4803F04EB29
:1002B000924202D04B689B0301D5094B00E0064BEC
:1002C0005A43E1E700100240002002400000FFF81E
:1002D000FFFFF6FE08ED00E000127A006801002042
:1002E00000093D0030B5554900E011460A688242D8
:1002F000FBD34B685C18844203D1406818444860C3
:10030000084643681C18944209D14C4C103C2468A0
:10031000A24209D052681A4442600A681268026018
:10032000814200D0086030BD0460F9E72DE9F0415A
:10033000424E0027103E0546306808B900F05CF8D0
:10034000F068054235D1A5B30835680704D005F03B
:100350000700C0F1080005445DB37068854228D8E5
:10036000364801460C6801E020460C466168A94207
:1003700002D221680029F7D131688C4219D0076870
:100380002168016060680837411B102904D9601991
:1003900041606560FFF7A6FF61687068401A706091
:1003A000B268904200D2B060F06801430020C4E916
:1003B00000013846BDE8F08130B4002811D01F4A52
:1003C00050F8041C103A0838D368194209D0046860
:1003D000002C06D19943416053681944516030BCE8
:1003E00080E730BC704715481038406870471348A4
:1003F000103880687047704711484FF470514207B9
:1004000006D0C01D0E4920F00700411AC1F57051F9
:100410000A4A00230144C2E900030839103A21F0D6
:10042000070111604B600B600B1AC0E90013936069
:100430004FF000405360D060704700008C010020F6
:100440000010002010B56FF0040000F0F8F820480C
:1004500020490068B0FBF1F0C1B21F4801EB410236
:100460000170C2EBC1114FF6FF7202EAC101418077
:1004700010BD1949097848434FF0E0214861002236
:100480008A61086940F0010008610869C30701D06A
:10049000C003FAD5086920F0010008618A6170473D
:1004A0000D49498848434FF0E021486100228A61A4
:1004B000086940F0010008610869C30701D0C00362
:1004C000FAD5086920F0010008618A6170470000D0
:1004D0006801002000127A009401002070472A4928
:1004E0000A885206FCD5284AC1B2121D11807047F5
:1004F00070B5054686B0012144F2040000F0F3FA1D
:100500004FF40070ADF8100003248DF8124018204D
:100510001E4E8DF8130004A9304600F0FAF830158D
:10052000ADF8100004208DF8130004A9304600F047
:10053000F0F80020ADF804000095ADF80600ADF825
:100540000800ADF80C000C200F4DADF80A0069460C
:10055000284600F047FB25208DF814008DF8154043
:100560008DF8164001208DF8170005A800F027F837
:10057000012240F22551284600F0B1FB0121284616
:1005800000F0A3FB06B070BD003801400008014038
:100590000648804706480047FEE7FEE7FEE7FEE71D
:1005A000FEE7FEE7FEE7FEE7FEE7FEE731020008B2
:1005B000ED0000082849084328490860704770B5D5
:1005C0000F23C47801780122F4B1244C24684578C3
:1005D00004F4E064C4F5E064240AC4F10406E340D2
:1005E0008478B5401C402C4301F1E021230181F8BF
:1005F0000034007800F01F018A404009800000F1BB
:10060000E020C0F8002170BD01F01F0082404809C1
:10061000800000F1E020C0F8802170BD104A114038
:1006200001430E48001F016070470C4A121D00294B
:10063000116801D0014300E08143116070474FF021
:10064000E0210428086903D020F004000861704705
:1006500040F00400FAE700000000FA050CED00E0AD
:1006600080FFFF1F914910B5884206D10121042067
:1006700000F04BFA002104203BE08D49884206D16E
:100680000121082000F041FA0021082031E08949C9
:10069000884206D10121102000F037FA00211020F5
:1006A00027E08549884206D10121202000F02DFA5B
:1006B000002120201DE08149884206D101214020EF
:1006C00000F023FA0021402013E07D49884206D142
:1006D0000121802000F019FA0021802009E07949E9
:1006E00088420AD184150121204600F00EFA00212B
:1006F0002046BDE8104000F008BA10BD10B5012139
:10070000084600F002FA0021BDE81040012000F088
:10071000FCB9F0B5CA78002502F00F03D20601D566
:100720008A7813430A784FF00F0E12F0FF0F4FF044
:1007300001021DD0D0F800400F8802FA05F63740BC
:10074000B74211D14FEA850C0EFA0CF724EA0707DD
:1007500003FA0CF43C43CF78282F02D0482F02D064
:1007600002E0466100E006616D1C082DE4D30460E0
:100770000C88FF2C1ED944685FF0000606F10807BC
:1007800002FA07F50F882F40AF420FD14FEA860CCF
:100790000EFA0CF7BC4303FA0CF73C43CF78282F32
:1007A00000D14561CF78482F00D10561761C082E15
:1007B000E4D34460F0BD4FF6FF71018002218170E7
:1007C0000421C17070470246002092680A4200D09E
:1007D00001207047806880B2704702460020D268CE
:1007E0000A4200D001207047C06880B270470161A2
:1007F0007047416170470AB10161704741617047BC
:10080000C160704741F48032826181618261816997
:10081000806970472C4B10B51A684FF680742240DF
:1008200042EA00100843186010BD2849C8617047AB
:10083000F0B5254C002801DAE36900E06368420D59
:10084000120185B2C0F301579540C0F30346032F50
:1008500005D0C2020AD50322B240934307E023F039
:100860007062636823F07063636002E0AB4343F03F
:10087000706201B12A43002801DAE261F0BD6260D2
:10088000F0BD10B58A0721F003040F49130F21446E
:100890000F228C689A4094438C608A689840024387
:1008A0008A6010BD0949C1F8DC00704700080140AA
:1008B000000C0140001001400014014000180140EC
:1008C000001C0140002001400000014000002042C7
:1008D000A448016841F0010101604168A24A114049
:1008E00041600168A14A11400160016821F4802142
:1008F0000160416821F4FE0141604FF41F018160F5
:10090000704798490A6822F480320A600A6822F423
:1009100080220A60B0F5803F07D0B0F5802F03D168
:10092000086840F4A02008607047086840F48030F0
:10093000F9E70246002053098A49012B0AD0022B0D
:100940000AD0496A02F01F02012393400B4200D0F3
:10095000012070470968F5E7096AF3E718B5002038
:100960004FF4A06400903120FFF7E3FF0099491C89
:100970000091A14201D00028F5D03120FFF7D9FF26
:10098000002800D0012018BD76490A6822F0F8023C
:1009900042EAC00008607047754908607047714AB4
:1009A0005368084323F47C13184350607047704920
:1009B000086670476B4A516821F00301014351609A
:1009C00070476848406800F00C007047654A5168FD
:1009D00021F0F001014351607047624A516821F4EF
:1009E000E0610143516070475E494A6822F46052F9
:1009F00042EAC000486070475A4A0029517A01D043
:100A0000014300E08143517270475949C1F8D80051
:100A10007047544A516821F4404101435160704786
:100A20005049002281F8202081F82020012802D09E
:100A3000042802D1052081F8200070474D49086044
:100A4000704748490A6A02430A6270474949443973
:100A50000860704730B543494A6812F00C03464AB3
:100A600003D0042B01D0082B21D002604A680F2349
:100A7000424C03EA1212A35C0268DA4042604B68FF
:100A8000072505EA1323E35C22FA03F383604B682E
:100A900005EAD323E35CDA40C2604968032303EA32
:100AA0009131231F595CB2FBF1F1016130BD4A68FD
:100AB0004B6802F470124FF0020413F4803F04EB11
:100AC000924202D04B689B0301D52D4B00E02A4B8C
:100AD0005A43CAE7234A0029516901D0014300E083
:100AE0008143516170471F4A0029916901D0014338
:100AF00000E08143916170471A4A0029D16901D011
:100B0000014300E08143D1617047164A0029D16852
:100B100001D0014300E08143D1607047114A0029B0
:100B2000116901D0014300E081431161704711490F
:100B30004039086070470E49C86470470949C87158
:100B400070470848416A41F0807141627047054A28
:100B50000146002092680A4200D0012070470149F6
:100B600088727047001002400000FFF8FFFFF6FE99
:100B7000000042428004424200127A00A00100209C
:100B800000093D00C44910B588420AD101218C03F7
:100B90002046FFF7BAFF2046BDE810400021FFF7CE
:100BA000B4BFBE49884202D101214C0410E0BC49C7
:100BB000884202D101218C040AE0BA49884202D15C
:100BC0000121CC0404E0B84988420AD101210C0576
:100BD0002046FFF7A3FF2046BDE810400021FFF7A5
:100BE0009DBF10BD30B50446008A85B00D464CF659
:100BF000FF710840E98801432182A1894EF6F31074
:100C00000140A8882A8910436A890A431043A081B9
:100C1000A08A4FF6FF410840A9890143A182684696
:100C2000FFF718FF9C48844201D1039800E0029826
:100C3000A189090400EBC00101EB0010296801D56E
:100C4000490000E08900B0FBF1F06422B0FBF2F152
:100C500009010B096FF018056B4300EB8300A389B2
:100C60001D044FF0320306D503EBC000B0FBF2F0D9
:100C700000F0070005E003EB0010B0FBF2F000F01D
:100C80000F000843208105B030BD4FF416510160BC
:100C900000218180C18001810C22428181817047C5
:100CA00010B5038A4FF2FF0213400A884C88224392
:100CB0008C88C9880C4322431A43028210BD00214C
:100CC000018041808180C18070470029818902D0E4
:100CD00041F4005101E021F400518181704710B5C9
:100CE000C1F3421301F01F040121A140012B07D0E1
:100CF000022B07D01430002A026805D00A4304E012
:100D00000C30F8E71030F6E78A43026010BD002A85
:100D1000828A01D00A4300E08A4382827047028AB5
:100D200022F00F020282028A0A43028270478289FD
:100D300022F40062828182890A43828170470029FD
:100D4000818902D041F0020101E021F0020181819C
:100D50007047028A22F020020282028A0A4302823B
:100D600070470029018A02D041F4804101E021F45A
:100D7000804101827047C1F30801818070478088FB
:100D8000C0F308007047818941F0010181817047FB
:100D9000028BD2B20283028B42EA012101837047A7
:100DA000028B02F47F420283028B0A430283704764
:100DB0000029818A02D041F0200101E021F02001C8
:100DC000818270470029818A02D041F0100101E040
:100DD00021F01001818270470029818A02D041F000
:100DE000080101E021F00801818270470029818912
:100DF00002D041F4004101E0C1F30E01818170474E
:100E00000029818A02D041F4006101E021F40061EF
:100E100081827047828A22F004028282828A0A4397
:100E2000828270470029818A02D041F0020101E0EC
:100E300021F00201818270470246002012880A4296
:100E400000D001207047C9430180704730B501F0E0
:100E50001F0201240025C1F3421304FA02F2012B00
:100E60000FD0022B0FD0838A4FEA11210088134242
:100E700004FA01F400EA040001D000B1012528467B
:100E800030BD8389F0E7038AEEE70A0A0121914029
:100E9000C943018070470000003801400044004011
:100EA00000480040004C00400050004010B500F0E9
:100EB000F6FA012801D8012010BD002010BD70B540
:100EC000924C002004F10805636803E0EE5C0E54C8
:100ED000401C5B1C16688642F8D80120636070BD18
:100EE0001CB51344CDE9002340690A460023046978
:100EF000A0471CBD30B5854C0020236802E00D5C86
:100F0000401C2B449042FAD30120236030BD2DE9D0
:100F1000FF4F93B00025209C0746042C01D3A60860
:100F200000E00126A01B20F001094FF0000B61B189
:100F300001291DD00A4676A17E4801F053F87EA112
:100F40007C4801F04FF80A2565E080A001F058F8D0
:100F50003119CDE9001B0022A146134684A001F0FF
:100F60004FF82046FFF7E2F904003AD0024644E089
:100F70008DA001F045F8D7E9000100F034FA411ED8
:100F8000B1F1804F27D25FEA000824D006EB0901B7
:100F9000CDE9001B08EB060A4246002374A001F0CD
:100FA0002FF80AEB0904214689A001F029F8204610
:100FB000FFF7BCF9040014D0CDE90086D7E9001290
:100FC000234602A800F049FA88B187A1594801F0E8
:100FD00009F80C251CE08BA1564801F003F80B25FD
:100FE00019E094A1534800F0FDFF092513E002A881
:100FF0003860974804EB0A0278604B4638461599EA
:1010000000F0DBFD20B993A14A4800F0EBFF152565
:101010002046FFF7D1F917B02846BDE8F08F30B56C
:10102000BBB0054600241AA83821059400F0CBFE79
:101030002CA8382100F0C7FE08A8482100F0C3FE04
:1010400068A11AA800F0C1FC002833D065A0019067
:101050008848029029A80090DDE901012BAB28AA5D
:1010600000F04DFD00282BD0002383A02B9A00F028
:10107000C7FF00235BA108A82B9A00F0DBFC002827
:1010800024D01AA8069082480390824800950490C4
:101090009DF8A01001A8299B0A9AFFF738FF0500C8
:1010A00028D00598002817D07BA1224800F09AFF8D
:1010B000059C22E07EA11F4800F094FF03241CE061
:1010C00083A11C4800F08EFF142416E088A1194863
:1010D00000F088FF042410E0269828B18DA115485F
:1010E00000F080FF052408E090A1124800F07AFF8C
:1010F0002C4602E094A000F083FF0448016896A00B
:1011000000F07EFF3BB0204630BD0000B001002063
:10111000756E6B6E6F7720636F6D70726573735F42
:10112000747970652022256422204552524F522145
:101130000A000000200300206469666620696E666C
:101140006F204552524F52210A00000068706174AE
:101150006368692072756E207769746820646563BE
:101160006F6D707265737365723A2022220A0000F7
:101170002020726571756972656D656E7473206D7E
:10118000656D6F72792073697A653A20286D757381
:10119000742920256C6C75202B2028636163686599
:1011A0002920256C6C750A00687061746368692079
:1011B00072756E2077697468206465636F6D7072F4
:1011C00065737365723A202274757A220A000000F2
:1011D0000D0A6D616C6C6F63206D656D6F727920A7
:1011E00025640D0A0000000074757A5F5453747210
:1011F00065616D5F6F70656E2829204552524F52B0
:10120000210A000074757A5F5453747265616D5FD2
:10121000726561645F646963745F73697A652829C4
:1012200020646963742073697A65204552524F5275
:10123000210A0000616C6C6F632063616368652044
:101240006D656D6F7279204552524F52210A000030
:10125000AD0E00086870617463685F6C6974655FE7
:10126000706174636828292072756E204552524F50
:1012700052210A00BF0E00086E6577446174615305
:10128000697A65203A20256C6C750D0A0000000013
:10129000E10E0008F50E000870617463684C697314
:1012A00074656E6572204552524F52210A0000004B
:1012B0006F70656E206F6C6446696C6520666F7236
:1012C0002072656164204552524F52210A0000008D
:1012D0006870617463685F6C6974655F6F70656E78
:1012E00028292072756E204552524F52210A000063
:1012F0006F70656E206F7574206E657746696C65DA
:1013000020666F72207772697465204552524F5281
:10131000210A00006F6C6446696C65207265616427
:10132000204552524F52210A00000000687061743B
:101330006368695F706174636828292072756E2024
:101340004552524F52210A00202070617463682078
:101350006F6B210D0A0000006F75742073756D3D71
:1013600025580D0A0000000038B50446D4E90001F4
:10137000884205D02068A268411C2160105C38BDFD
:10138000084600912168814201D0AFF30080D4E982
:10139000021023696A46984701004FF0000000D10F
:1013A00000902060009860600028E3D138BD2DE9EE
:1013B000F04104460F46D4E90D65BD4207D3E81B52
:1013C000A06326FA01F060633046BDE8F081FFF7C4
:1013D000CBFF791BC1F1080220FA01F1C4E90D121B
:1013E000A8403043F1E77CB50B004FF004010191B8
:1013F00031D001AA6946984710B10198042801D05C
:1014000000207CBD9DF80220BDF800009DF803106F
:1014100062F31F4050EA0160019001D0012300E017
:1014200000239DF80140C0F30725AC4201D10124FF
:1014300000E000242340C0F30744A24201D101226E
:1014400000E000221340B1EB106F01D1012100E058
:1014500000210B42D5D1AFF3008070B5DDE9044522
:10146000BAB1B3B1BCB1C5B1056045601D198560A5
:10147000C0E903120021C0E90514C0E907310122C7
:10148000C0E90912C162016341638163C163084617
:1014900070BDAFF30080152070BD162070BD2DE922
:1014A000F05F17689246044688460D460FB101204A
:1014B00000E000208346E06A38B3002F7DD0216A27
:1014C000A069814209D23A462946204600F0CCF96B
:1014D000216A02468818206211E0E26ABA4200D30B
:1014E0003A46636A29464344104603E013F8016B09
:1014F00001F8016B401EF9D2606A10446062E06A34
:101500001544801ABF1AE062D5E7206B90B1002F16
:1015100053D0B84201D2064600E03E46801BBF1BB6
:10152000206304E02046FFF71FFF05F8010B761E3D
:10153000EBD3F7E720460121FFF739FF10F0010F49
:101540000AD04FF00100CFB3E0632046FFF70CFF55
:1015500005F8010B7F1EEDE7002602212046FFF76C
:1015600026FF014666F35F010E4680070AD4E06B52
:1015700050B120460121FFF71AFF10F0010F03D0F0
:10158000A06A13E04E1CE8E72046FFF7EDFE814617
:10159000802807D3204600F01FF90146484661F332
:1015A000DF108030B0F5286F00D3761C0021E16396
:1015B000D0B1A5EB0802B61C01E039E031E0C4E986
:1015C0000A06A169081A814202D81720BDE8F09FD7
:1015D0000B1A934203D910442062002002E0104409
:1015E000401A2162606268E7012E4FF0010009D0C5
:1015F000A163A062022E9DD0032E0AD0606870B154
:101600000A20E3E7E063204600F0E6F80F302063AD
:101610007DE7A5EB0800CAF800000120D6E71420FA
:10162000D4E7616B00EB41006063A06B401CA063DA
:101630004046A84504D001462A46204600F0DBF883
:1016400060680028EBD0BBF1000F01D00020BDE79F
:101650001820BBE730B5D0E902438B4206D35A1AB3
:1016600024FA01F1C0E90212204630BDD0E900257C
:10167000AA420DD2551C05601278C91AC1F108059D
:1016800022FA01F1C0E902159A4042EA040030BD95
:10169000002030BD2DE9F04F85B01646021D0844EC
:1016A0004FF0000BCDE90020CDF808B0CDF80CB01C
:1016B0001868354600EB0508012099465F460490FE
:1016C00001216846FFF7C6FFC0070DD045456FD220
:1016D000DDE90001012788427AD2007805F8010B84
:1016E0000098401C0090EBE7EA4600240221504697
:1016F000FFF7B0FF014664F35F010C46800709D491
:1017000057B101216846FFF7A5FFC00704D0DDF8F7
:1017100010A017E04C1CE9E7DDE90001884257D230
:1017200010F801AB0090BAF1800F07D3684600F0C3
:10173000C3F8514660F3DF1101F1800ABAF5286F52
:1017400000D3641C0027BAF1000F18D0A91BA41CF9
:10175000CDF810A0514503D2172005B0BDE8F08F99
:10176000A8EB0500A04235D3A5EB0A0004E000BFBA
:1017700010F8011B05F8011B641EA1D3F8E7012C2A
:1017800008D00120CDE903B0022C99D0032C1AD047
:101790000A20E2E7684600F08FF8DDE90012521AED
:1017A0000F30824214D3A8EB0502824212D305E027
:1017B00010E00DE011F8012B05F8012B401EF9D2C5
:1017C000012700917CE7A91B0120C9F80010C4E79C
:1017D0001420C2E71820C0E770B505460024032195
:1017E0002846FFF7E4FD014664F39F00490701D551
:1017F000441CF4E770BD2DE9F047894605461346C1
:10180000A2EB0904D5E906208046686A0026A042BA
:1018100002D3001B686204E0296A201A081AC5E98D
:101820000806944206D3991A404600F0B3FA6E6156
:10183000BDE8F0876F69D61BB44208EB070002D8F9
:101840002246494607E03246494600F0A3FAA21B69
:1018500009EB0601404600F09DFAB44201D8E019B8
:1018600000E0A01B6861E3E72DE9F0410E46054664
:101870008169006A0B1A934200D21A46EC6A9442BC
:1018800000D314466B69CA1A904201D2184400E092
:10189000801A0F1AE969A742014402D32246304652
:1018A00006E03A46304600F075FAE21BF019E969A5
:1018B00000F070FA204688E570B505460024032143
:1018C0002846FFF7C7FE014664F39F00490701D58C
:1018D000441CF4E770BD0000F0B5604E4FF4801575
:1018E0005F4F346811E0501AA84200D928460023FF
:1018F00008E000BFD7F800C01CF804C001F803C01E
:101900005B1C641C8342F5D301449142EBD33460E9
:10191000914201D10120F0BD0020F0BD01207047AF
:1019200010B50C0007D04FA1002000BF002801D047
:101930002060012010BDAFF30080012070472DE929
:10194000F0411746DDE9061204681D46914201D9AF
:10195000AFF30080561A1DD004F12000E26A90E82F
:1019600009101CEB070C6A4180EA0C005340184335
:1019700002D03A48C0F800C08A19A069FFF7ACFF4E
:1019800058B1D4E90A10BB1945F10005C9186841DE
:10199000C4E908100120BDE8F0814FF0FF30C4E930
:1019A000080000F03DFB0568206BA8420BD055B144
:1019B00000B92563284600F011FA03462A462AA1F9
:1019C000374800F00FFB0020E5E710B5816909B149
:1019D000AFF30080214A0021016352680060C0E932
:1019E0000221304900220161C0E90822C0E90A222F
:1019F000012010BD70B50546806968B10021A9615C
:101A00004FF0FF3040B100F00BFB0468286BA042A0
:101A10000ED06CB110B102E0012070BD2C632046E5
:101A200000F0DCF9034622460FA11D4800F0DAFA67
:101A3000002070BD10B5816909B1AFF3008000606E
:101A40000021C0E90223C0E908118162C0E90B113D
:101A500081634163C0E91011012010BD180300200B
:101A60000400002077622B0063616C6C20696D704C
:101A70006F72742073797374656D2061706920656D
:101A800072726F7221206572726E6F3A2025642C1B
:101A9000206572726D73673A2025732E0A0000006C
:101AA000200300203F19000838B504464068009024
:101AB0002168814201D0AFF30080D4E9021023698C
:101AC0006A46984701004FF0000000D10090206066
:101AD00000986060002800D0012038BD10B5044691
:101AE000D4E90001884204D12046FFF7DDFF002839
:101AF00004D02068A268411C2160105C10BD2DE953
:101B0000FF418046042016460C4603901D460A9F5E
:101B100003AA02A94046A047002833D003999DF8A4
:101B20000B000090042913D05FF000019DF80820FD
:101B3000682A0FD0002211409DF80920492A0BD0B5
:101B4000002211400122B2EB901F07D1012006E0D4
:101B50000121EBE70122EEE70122F2E7002001423A
:101B60000FD09DF80A003070009800F00700039035
:101B700000980399C0F3C2000090042901D80428FA
:101B800003D9002004B0BDE8F08103AA02A94046B1
:101B9000A0470028F6D002A8039900F0F2F82860C8
:101BA0006A4602A94046A0470028EBD002A8009947
:101BB00000F0E7F838600120E4E72DE9FF4F4FF02F
:101BC000000489B05FEA02088146254613D0022B43
:101BD00076D358080290039040440490D9F800004E
:101BE0000590D9F8040006900122002102A800F017
:101BF00073F806465CE0AFF300800122002102A8E2
:101C000000F06AF8834602A8FFF768FF074600F075
:101C1000200200F01F0102A800F05EF80146F8095A
:101C20000790780601D5681A00E04819824601221B
:101C3000002102A800F050F80719A74240D3BC4287
:101C400020D202A83D1B00901AE000BFDDE902107F
:101C5000441A06D10098FFF727FF80B3DDE9021090
:101C6000441AAC4200D92C460498D9F80C300144EF
:101C700048462246984710B302982D1B20440290F4
:101C8000002DE3D1CDE900B8534602A94846079A92
:101C900000F032F8002814D007EB0B040AEB0B0518
:101CA0005FEA0B0000D0012076B10021084308D084
:101CB000761EA2D20A98A04208D1012007E0FFE7D1
:101CC00000200DB0BDE8F08F0121EFE7002003995F
:101CD00001B101210840F4E770B50C46054607E064
:101CE0002846FFF7FBFE2146044661F3DF14C209D4
:101CF000002AF5D1204670BD2DE9F0479946DDE96F
:101D0000086A17460D46804637E06C6847B9286870
:101D1000241A06D12846FFF7C7FED5E900010C1AA0
:101D20006CB1B44200D93446D8F808C040462346C6
:101D300052464946E047002802D01FB113E0002078
:101D4000BDE8F087AA68296850461144224605E09C
:101D5000037811F801CB634400F8013B521EF7D21F
:101D6000286820442860D8F80C3040462246514666
:101D700098470028E4D0A144361B002EC5D101208D
:101D8000DEE70246002002E0535C43EA0020491EE1
:101D9000FAD2704740EA01039B0703D009E008C963
:101DA000121F08C0042AFAD203E011F8013B00F820
:101DB000013B521EF9D27047D2B201E000F8012B6C
:101DC000491EFBD270470022F6E710B513460A46BB
:101DD00004461946FFF7F0FF204610BD07280FD232
:101DE000DFE800F00406080E0E0C0A0005A070479C
:101DF0000AA0704713A070471DA0704722A070472B
:101E00002BA070474E6F206572726F72202865722A
:101E1000726E6F203D2030290000000045444F4D78
:101E2000202D2066756E6374696F6E206172677510
:101E30006D656E74206F7574206F662072616E67B9
:101E4000650000004552414E4745202D2066756EC5
:101E50006374696F6E20726573756C74206E6F7435
:101E600020726570726573656E7461626C650000E6
:101E7000454E4F4D454D202D206F7574206F6620C7
:101E80006D656D6F7279000045494E56414C202DAD
:101E900020696E76616C696420617267756D656E2C
:101EA0007420746F2066756E6374696F6E00000035
:101EB000556E6B6E6F776E206572726F72000000E8
:101EC0002DE9F05F0546002092469B46884606466F
:101ED000814640241BE0284641464746224600F002
:101EE00042F853465A46C01A914110D3114618463B
:101EF000224600F029F82D1A67EB01084F462246CA
:101F00000120002100F020F817EB00094E41201EAF
:101F1000A4F10104DFDC484631462A464346BDE8C9
:101F2000F09F0000064C074D06E0E06840F001031A
:101F300094E8070098471034AC42F6D3FEF7DAF87D
:101F40000823000828230008202A04DB203A00FA8E
:101F500002F1002070479140C2F1200320FA03F300
:101F6000194390407047202A04DB203A21FA02F0FE
:101F70000021704721FA02F3D040C2F120029140C3
:101F800008431946704770B58D1810F8014B14F0CE
:101F9000030201D110F8012B231106D110F8013BE7
:101FA00003E010F8016B01F8016B521EF9D1ABB1DF
:101FB00010F8012B04F00C048A1A0C2C03D0A2EBAD
:101FC00084129B1C08E010F8014BA2EB0422F8E7F6
:101FD00012F8014B01F8014B5B1EF9D5A942D4D38D
:101FE000002070BD0FB4024610B504A9034B03983E
:101FF00000F02AF810BC5DF814FB0000DF040008B4
:102000000FB4054B10B503A9044A029800F01CF860
:1020100010BC5DF814FB0000DF04000898010020EC
:10202000004870472403002002E008C8121F08C1BE
:10203000002AFAD170477047002001E001C1121F49
:10204000002AFBD1704700002DE9FF4F8DB09B4661
:102050000F460446002606E025280BD05A460F9965
:102060009047641C761C20780028F5D111B03046CA
:10207000BDE8F08F0025A8460122984900E00543FD
:1020800014F8013F203B02FA03F00842F7D1207810
:102090002E2817D114F8010F45F004052A280ED078
:1020A0006FF02F022078A0F1300109290AD808EB3F
:1020B000880102EB410100EB0108641CF2E757F8CC
:1020C000048B641C20786C280DD004DC4C2812D0C2
:1020D0006A2811D104E074280DD07A280CD10AE0C6
:1020E00045F4001507E0617845F48015814202D17E
:1020F000641C05F58015641C2078692844D008DC30
:102100000028B3D0582867D063280FD0642808D19E
:102110003AE0702865D0732812D075285AD07828F4
:102120005AD05A460F999047761CD5E017F8040B01
:102130008DF8000000208DF80100E946012003E041
:1021400057F8049B4FF0FF3069074FF0000501D4AA
:102150000AE06D1C45450DDA8542FADB19F80510D9
:102160000029F6D106E06D1C8542FCDB19F805104C
:102170000029F8D12E4404E019F8010B5A460F99B2
:1021800090476D1EF8D2A7E00A200021CDE9080192
:10219000C5F3025002280CD001CFC117021E71F105
:1021A00000020CDA0023D0EB030063EB01012D22C7
:1021B00008E0FF1D27F00707F7E80201EEE72A0510
:1021C00004D52B228DF8282001223CE0EA073AD0E2
:1021D0002022F7E70A2000E010200021CDE90801C5
:1021E00007E01020002145F00405CDE908014FF07B
:1021F0000808C5F30250022810D001CF00214FF08B
:10220000000A2A0720D52278702A0DD0DDE908C3FC
:102210008CF0100C5CEA030C0CD015E0FF1D27F0CD
:102220000707F7E80201EAE740228DF828204FF07F
:10223000010A0CE050EA010306D030238DF8283063
:102240008DF82920022292462278582A04D024A20E
:102250000DF120090B9209E026A2F9E7DDE9082338
:10226000FFF72EFE0B9B9B5C09F8013D50EA010233
:10227000F4D1ADEB090020300890680701D44FF08D
:1022800001080899884503DD0898A8EB000000E0E4
:1022900000208046002506E00AA85A46405D0F99B6
:1022A00090476D1C761C5545F6DB04E030205A46FD
:1022B0000F999047761CB8F10001A8F10108F5DCF0
:1022C00005E019F8010B5A460F999047761C0899BA
:1022D000481E08900029F4DC641CC4E609280100AB
:1022E000303132333435363738396162636465668C
:1022F000000000003031323334353637383941424E
:102300004344454600000000282300080000002048
:1023100028030000861F0008B424000828030020BA
:10232000D84800003820000852000100FF0068492A
:10233000015264366D3600040000CF02C13400D76C
:102340006DFCC704BE3301FE00DF57E6FCFB1ADA62
:1023500082BAAAB47FFEB2017D5D30F6EDFEFE8248
:10236000E5F16ED6141FD2CA8E16CF347F7E54A7E5
:102370002AFED7F856AC441F01F749C0FE7FE4B6E9
:102380001D8638666F6CFDFE9FD8D81F687906DF02
:102390005201FEDFA086FEDDE36CEC0CD9065F2463
:1023A000DE1A7F16BEAAF8BDBAF5FE7AA84E3F988F
:1023B0000C7DA756FEFF7860859CF0D33EFEFB01A6
:1023C000FAFDF140C7F4F8D5F801A3D6FEFDFF9160
:1023D00034041F6A7F705E3596D95DD0D8FFE90658
:1023E000FFF314AB280C08FFC82000F021FAF3E734
:1023F0007CB43B02A75702D5383222FAC92A289F5B
:102400006AD7A50102FFE35A7790E202BE06CEFD2D
:1024100002C72AFA42C8B402DE027E0D9A7202375F
:1024200056FEB35CBFC9F8FF07A4BE7B445EA64B53
:10243000023F7EAD021BE0B4021F38591CFD96B26C
:1024400002BAC924024D0C02FF1F8CAA0277D31EC8
:1024500002C70EAA93B6027633FEFF27C0FFF972B9
:102460003FC071FFD6D4027A909C027FFC30DFD847
:10247000A8EFB50102BA09C27D1FB6E402EF499088
:1024800002FF9AD4F5FCC710AAC201616404A24AF3
:10249000046C000A1D01020304060708090001601C
:1024A000050204060830E13405FFB0055EB0D10135
:0424B0000000000028
:04000005080000ED02
:00000001FF
