Component: ARM Compiler 5.06 update 7 (build 960) Tool: armlink [4d3601]

==============================================================================

Section Cross References

    main.o(.text) refers to delay.o(.text) for delay_init
    main.o(.text) refers to usart.o(.text) for uart_init
    main.o(.text) refers to printf5.o(i.__0printf$5) for __2printf
    main.o(.text) refers to hpatchi.o(.text) for hpatchi
    main.o(.text) refers to main.o(.data) for .data
    system_stm32f10x.o(.text) refers to system_stm32f10x.o(.data) for .data
    iap.o(.text) refers to stmflash.o(.text) for STMFLASH_Write
    iap.o(.text) refers to stm32f10x_usart.o(.text) for USART_DeInit
    iap.o(.text) refers to sys.o(.emb_text) for MSR_MSP
    iap.o(.text) refers to iap.o(.bss) for .bss
    iap.o(.text) refers to iap.o(.data) for .data
    heap_4.o(.text) refers to heap_4.o(.data) for .data
    heap_4.o(.text) refers to heap_4.o(.ARM.__AT_0x20001000) for .ARM.__AT_0x20001000
    stmflash.o(.text) refers to stm32f10x_flash.o(.text) for FLASH_ProgramHalfWord
    stmflash.o(.text) refers to stmflash.o(.bss) for .bss
    delay.o(.text) refers to misc.o(.text) for SysTick_CLKSourceConfig
    delay.o(.text) refers to system_stm32f10x.o(.data) for SystemCoreClock
    delay.o(.text) refers to delay.o(.data) for .data
==============================================================================

Removing Unused input sections from the image.

    Removing iap.o(.text), (164 bytes).
    Removing iap.o(.bss), (2048 bytes).
    Removing iap.o(.data), (4 bytes).
    Removing stmflash.o(.text), (280 bytes).
    Removing stmflash.o(.bss), (1024 bytes).
    Removing sys.o(.emb_text), (12 bytes).
    Removing sys.o(.text), (8 bytes).
    Removing core_cm3.o(.emb_text), (32 bytes).
    Removing startup_stm32f10x_md.o(HEAP), (512 bytes).
    Removing stm32f10x_fsmc.o(.text), (1148 bytes).
    Removing stm32f10x_flash.o(.text), (1148 bytes).
    Removing dadd.o(.text), (334 bytes).
    Removing dmul.o(.text), (228 bytes).
    Removing ddiv.o(.text), (222 bytes).
    Removing dfixul.o(.text), (48 bytes).
    Removing cdrcmple.o(.text), (48 bytes).
    Removing depilogue.o(.text), (186 bytes).

==============================================================================

Image Symbol Table

    Local Symbols

    Symbol Name                              Value     Ov Type        Size  Object(Section)

    ../clib/../cmprslib/lz77c.c              0x00000000   Number         0  __dclz77c.o ABSOLUTE
    ../clib/microlib/division.c              0x00000000   Number         0  uidiv.o ABSOLUTE
    ../clib/microlib/division.c              0x00000000   Number         0  uldiv.o ABSOLUTE
    ../clib/microlib/errno.c                 0x00000000   Number         0  errno.o ABSOLUTE
    ../clib/microlib/init/entry.s            0x00000000   Number         0  entry7b.o ABSOLUTE
    ../clib/microlib/init/entry.s            0x00000000   Number         0  entry11a.o ABSOLUTE
    ../clib/microlib/init/entry.s            0x00000000   Number         0  entry9a.o ABSOLUTE
    ../clib/microlib/init/entry.s            0x00000000   Number         0  entry12b.o ABSOLUTE
    ../clib/microlib/init/entry.s            0x00000000   Number         0  entry7a.o ABSOLUTE
    ../clib/microlib/init/entry.s            0x00000000   Number         0  entry2.o ABSOLUTE
    ../clib/microlib/init/entry.s            0x00000000   Number         0  entry12a.o ABSOLUTE
    ../clib/microlib/init/entry.s            0x00000000   Number         0  entry10b.o ABSOLUTE
    ../clib/microlib/init/entry.s            0x00000000   Number         0  entry9b.o ABSOLUTE
    ../clib/microlib/init/entry.s            0x00000000   Number         0  entry11b.o ABSOLUTE
    ../clib/microlib/init/entry.s            0x00000000   Number         0  entry10a.o ABSOLUTE
    ../clib/microlib/init/entry.s            0x00000000   Number         0  entry5.o ABSOLUTE
    ../clib/microlib/init/entry.s            0x00000000   Number         0  entry8b.o ABSOLUTE
    ../clib/microlib/init/entry.s            0x00000000   Number         0  entry8a.o ABSOLUTE
    ../clib/microlib/init/entry.s            0x00000000   Number         0  entry.o ABSOLUTE
    ../clib/microlib/longlong.c              0x00000000   Number         0  llsshr.o ABSOLUTE
    ../clib/microlib/longlong.c              0x00000000   Number         0  llushr.o ABSOLUTE
    ../clib/microlib/longlong.c              0x00000000   Number         0  llshl.o ABSOLUTE
    ../clib/microlib/printf/printf.c         0x00000000   Number         0  printfb.o ABSOLUTE
    ../clib/microlib/printf/printf.c         0x00000000   Number         0  printfa.o ABSOLUTE
    ../clib/microlib/printf/printf.c         0x00000000   Number         0  printf1.o ABSOLUTE
    ../clib/microlib/printf/printf.c         0x00000000   Number         0  printf2.o ABSOLUTE
    ../clib/microlib/printf/printf.c         0x00000000   Number         0  printf8.o ABSOLUTE
    ../clib/microlib/printf/printf.c         0x00000000   Number         0  printf3.o ABSOLUTE
    ../clib/microlib/printf/printf.c         0x00000000   Number         0  printf5.o ABSOLUTE
    ../clib/microlib/printf/printf.c         0x00000000   Number         0  printf4.o ABSOLUTE
    ../clib/microlib/printf/printf.c         0x00000000   Number         0  printf0.o ABSOLUTE
    ../clib/microlib/printf/printf.c         0x00000000   Number         0  printf6.o ABSOLUTE
    ../clib/microlib/printf/printf.c         0x00000000   Number         0  printf7.o ABSOLUTE
    ../clib/microlib/printf/stubs.s          0x00000000   Number         0  stubs.o ABSOLUTE
    ../clib/microlib/stdio/fclose.c          0x00000000   Number         0  fclose.o ABSOLUTE
    ../clib/microlib/stdio/fopen.c           0x00000000   Number         0  fopen.o ABSOLUTE
    ../clib/microlib/stdio/streams.c         0x00000000   Number         0  stderr.o ABSOLUTE
    ../clib/microlib/stdlib/abort.c          0x00000000   Number         0  abort.o ABSOLUTE
    ../clib/microlib/string/memcpy.c         0x00000000   Number         0  memcpyb.o ABSOLUTE
    ../clib/microlib/string/memcpy.c         0x00000000   Number         0  memcpya.o ABSOLUTE
    ../clib/microlib/string/memset.c         0x00000000   Number         0  memseta.o ABSOLUTE
    ../clib/microlib/string/strerror.c       0x00000000   Number         0  strerror.o ABSOLUTE
    ../clib/microlib/stubs.s                 0x00000000   Number         0  iusefp.o ABSOLUTE
    ../clib/microlib/stubs.s                 0x00000000   Number         0  useno.o ABSOLUTE
    ../fplib/microlib/fpadd.c                0x00000000   Number         0  dadd.o ABSOLUTE
    ../fplib/microlib/fpdiv.c                0x00000000   Number         0  ddiv.o ABSOLUTE
    ../fplib/microlib/fpepilogue.c           0x00000000   Number         0  depilogue.o ABSOLUTE
    ../fplib/microlib/fpfix.c                0x00000000   Number         0  dfixul.o ABSOLUTE
    ../fplib/microlib/fpmul.c                0x00000000   Number         0  dmul.o ABSOLUTE
    ..\CORE\core_cm3.c                       0x00000000   Number         0  core_cm3.o ABSOLUTE
    ..\CORE\startup_stm32f10x_md.s           0x00000000   Number         0  startup_stm32f10x_md.o ABSOLUTE
    ..\HARDWARE\STMFLASH\stmflash.c          0x00000000   Number         0  stmflash.o ABSOLUTE
    ..\IAP\iap.c                             0x00000000   Number         0  iap.o ABSOLUTE
    ..\MALLOC\heap_4.c                       0x00000000   Number         0  heap_4.o ABSOLUTE
    ..\STM32F10x_FWLib\src\misc.c            0x00000000   Number         0  misc.o ABSOLUTE
    ..\STM32F10x_FWLib\src\stm32f10x_flash.c 0x00000000   Number         0  stm32f10x_flash.o ABSOLUTE
    ..\STM32F10x_FWLib\src\stm32f10x_fsmc.c  0x00000000   Number         0  stm32f10x_fsmc.o ABSOLUTE
    ..\STM32F10x_FWLib\src\stm32f10x_gpio.c  0x00000000   Number         0  stm32f10x_gpio.o ABSOLUTE
    ..\STM32F10x_FWLib\src\stm32f10x_rcc.c   0x00000000   Number         0  stm32f10x_rcc.o ABSOLUTE
    ..\STM32F10x_FWLib\src\stm32f10x_usart.c 0x00000000   Number         0  stm32f10x_usart.o ABSOLUTE
    ..\SYSTEM\delay\delay.c                  0x00000000   Number         0  delay.o ABSOLUTE
    ..\SYSTEM\sys\sys.c                      0x00000000   Number         0  sys.o ABSOLUTE
    ..\SYSTEM\usart\usart.c                  0x00000000   Number         0  usart.o ABSOLUTE
    ..\\CORE\\core_cm3.c                     0x00000000   Number         0  core_cm3.o ABSOLUTE
    ..\\SYSTEM\\sys\\sys.c                   0x00000000   Number         0  sys.o ABSOLUTE
    ..\hdiffpatch\HDiffPatch\file_for_patch.c 0x00000000   Number         0  file_for_patch.o ABSOLUTE
    ..\hdiffpatch\HDiffPatch\libHDiffPatch\HPatchLite\hpatch_lite.c 0x00000000   Number         0  hpatch_lite.o ABSOLUTE
    ..\hdiffpatch\hpatchi.c                  0x00000000   Number         0  hpatchi.o ABSOLUTE
    ..\hdiffpatch\tinyuz\decompress\tuz_dec.c 0x00000000   Number         0  tuz_dec.o ABSOLUTE
    cdrcmple.s                               0x00000000   Number         0  cdrcmple.o ABSOLUTE
    dc.s                                     0x00000000   Number         0  dc.o ABSOLUTE
    handlers.s                               0x00000000   Number         0  handlers.o ABSOLUTE
    init.s                                   0x00000000   Number         0  init.o ABSOLUTE
    main.c                                   0x00000000   Number         0  main.o ABSOLUTE
    stm32f10x_it.c                           0x00000000   Number         0  stm32f10x_it.o ABSOLUTE
    system_stm32f10x.c                       0x00000000   Number         0  system_stm32f10x.o ABSOLUTE
    RESET                                    0x08000000   Section      236  startup_stm32f10x_md.o(RESET)
    .ARM.Collect$$$$00000000                 0x080000ec   Section        0  entry.o(.ARM.Collect$$$$00000000)
    .ARM.Collect$$$$00000001                 0x080000ec   Section        4  entry2.o(.ARM.Collect$$$$00000001)
    .ARM.Collect$$$$00000004                 0x080000f0   Section        4  entry5.o(.ARM.Collect$$$$00000004)
    .ARM.Collect$$$$00000008                 0x080000f4   Section        0  entry7b.o(.ARM.Collect$$$$00000008)
    .ARM.Collect$$$$0000000A                 0x080000f4   Section        0  entry8b.o(.ARM.Collect$$$$0000000A)
    .ARM.Collect$$$$0000000B                 0x080000f4   Section        8  entry9a.o(.ARM.Collect$$$$0000000B)
    .ARM.Collect$$$$0000000E                 0x080000fc   Section        4  entry12b.o(.ARM.Collect$$$$0000000E)
    .ARM.Collect$$$$0000000F                 0x08000100   Section        0  entry10a.o(.ARM.Collect$$$$0000000F)
    .ARM.Collect$$$$00000011                 0x08000100   Section        0  entry11a.o(.ARM.Collect$$$$00000011)
    .ARM.Collect$$$$00002712                 0x08000100   Section        4  entry2.o(.ARM.Collect$$$$00002712)
    __lit__00000000                          0x08000100   Data           4  entry2.o(.ARM.Collect$$$$00002712)
    .text                                    0x08000104   Section        0  main.o(.text)
    .text                                    0x0800017c   Section        0  stm32f10x_it.o(.text)
    .text                                    0x08000190   Section        0  system_stm32f10x.o(.text)
    SetSysClockTo72                          0x08000191   Thumb Code   160  system_stm32f10x.o(.text)
    .text                                    0x080002e4   Section        0  heap_4.o(.text)
    prvInsertBlockIntoFreeList               0x080002e5   Thumb Code    72  heap_4.o(.text)
    prvHeapInit                              0x080003f9   Thumb Code    66  heap_4.o(.text)
    .text                                    0x08000444   Section        0  delay.o(.text)
    .text                                    0x080004dc   Section        0  usart.o(.text)
    .text                                    0x08000590   Section       36  startup_stm32f10x_md.o(.text)
    .text                                    0x080005b4   Section        0  misc.o(.text)
    .text                                    0x08000664   Section        0  stm32f10x_gpio.o(.text)
    .text                                    0x080008d0   Section        0  stm32f10x_rcc.o(.text)
    .text                                    0x08000b84   Section        0  stm32f10x_usart.o(.text)
    .text                                    0x08000eac   Section        0  hpatchi.o(.text)
    _tuz_TStream_decompress                  0x08000ead   Thumb Code    18  hpatchi.o(.text)
    _do_readFile                             0x08000ebf   Thumb Code    34  hpatchi.o(.text)
    _do_readOld                              0x08000ee1   Thumb Code    20  hpatchi.o(.text)
    _do_writeNew                             0x08000ef5   Thumb Code    26  hpatchi.o(.text)
    .text                                    0x08001368   Section        0  tuz_dec.o(.text)
    _cache_read_1byte                        0x08001369   Thumb Code    70  tuz_dec.o(.text)
    _cache_read_lowbits                      0x080013af   Thumb Code    56  tuz_dec.o(.text)
    _mem_read_lowbits                        0x08001655   Thumb Code    64  tuz_dec.o(.text)
    _cache_unpack_pos_len                    0x080017d9   Thumb Code    30  tuz_dec.o(.text)
    _update_dict                             0x080017f7   Thumb Code   114  tuz_dec.o(.text)
    _copy_from_dict                          0x08001869   Thumb Code    80  tuz_dec.o(.text)
    _mem_unpack_pos_len                      0x080018b9   Thumb Code    30  tuz_dec.o(.text)
    .text                                    0x080018d8   Section        0  file_for_patch.o(.text)
    _TFileStreamInput_read_file              0x0800193f   Thumb Code   140  file_for_patch.o(.text)
    .text                                    0x08001aa8   Section        0  hpatch_lite.o(.text)
    _cache_unpackUInt                        0x08001cd9   Thumb Code    32  hpatch_lite.o(.text)
    _patch_add_old_withClip                  0x08001cf9   Thumb Code   138  hpatch_lite.o(.text)
    _hpi_readSize                            0x08001d83   Thumb Code    18  hpatch_lite.o(.text)
    .text                                    0x08001d94   Section        0  memcpya.o(.text)
    .text                                    0x08001db8   Section        0  memseta.o(.text)
    .text                                    0x08001ddc   Section        0  strerror.o(.text)
    .text                                    0x08001ec0   Section        0  uldiv.o(.text)
    .text                                    0x08001f24   Section       36  init.o(.text)
    .text                                    0x08001f48   Section        0  llshl.o(.text)
    .text                                    0x08001f66   Section        0  llushr.o(.text)
    .text                                    0x08001f86   Section        0  __dclz77c.o(.text)
    i.__0fprintf$5                           0x08001fe4   Section        0  printf5.o(i.__0fprintf$5)
    i.__0printf$5                            0x08002000   Section        0  printf5.o(i.__0printf$5)
    i.__aeabi_errno_addr                     0x08002020   Section        0  errno.o(i.__aeabi_errno_addr)
    i.__scatterload_copy                     0x08002028   Section       14  handlers.o(i.__scatterload_copy)
    i.__scatterload_null                     0x08002036   Section        2  handlers.o(i.__scatterload_null)
    i.__scatterload_zeroinit                 0x08002038   Section       14  handlers.o(i.__scatterload_zeroinit)
    i._printf_core                           0x08002048   Section        0  printf5.o(i._printf_core)
    _printf_core                             0x08002049   Thumb Code   660  printf5.o(i._printf_core)
    .data                                    0x20000000   Section      357  main.o(.data)
    sizeold                                  0x20000000   Data           4  main.o(.data)
    diff                                     0x20000008   Data         349  main.o(.data)
    .data                                    0x20000168   Section       20  system_stm32f10x.o(.data)
    .data                                    0x2000017c   Section       24  heap_4.o(.data)
    pxEnd                                    0x2000017c   Data           4  heap_4.o(.data)
    xFreeBytesRemaining                      0x20000180   Data           4  heap_4.o(.data)
    xMinimumEverFreeBytesRemaining           0x20000184   Data           4  heap_4.o(.data)
    xBlockAllocatedBit                       0x20000188   Data           4  heap_4.o(.data)
    xStart                                   0x2000018c   Data           8  heap_4.o(.data)
    .data                                    0x20000194   Section        4  delay.o(.data)
    fac_us                                   0x20000194   Data           1  delay.o(.data)
    fac_ms                                   0x20000196   Data           2  delay.o(.data)
    .data                                    0x20000198   Section        4  usart.o(.data)
    .data                                    0x2000019c   Section       20  stm32f10x_rcc.o(.data)
    ADCPrescTable                            0x2000019c   Data           4  stm32f10x_rcc.o(.data)
    APBAHBPrescTable                         0x200001a0   Data          16  stm32f10x_rcc.o(.data)
    .data                                    0x200001b0   Section      357  hpatchi.o(.data)
    diffcnt                                  0x200001b4   Data           4  hpatchi.o(.data)
    diff                                     0x200001b8   Data         349  hpatchi.o(.data)
    .data                                    0x20000318   Section        8  file_for_patch.o(.data)
    oldcnt                                   0x20000318   Data           4  file_for_patch.o(.data)
    sizeold                                  0x2000031c   Data           4  file_for_patch.o(.data)
    .data                                    0x20000320   Section        4  stderr.o(.data)
    .data                                    0x20000324   Section        4  errno.o(.data)
    _errno                                   0x20000324   Data           4  errno.o(.data)
    STACK                                    0x20000328   Section     1024  startup_stm32f10x_md.o(STACK)
    .ARM.__AT_0x20001000                     0x20001000   Section    15360  heap_4.o(.ARM.__AT_0x20001000)
    ucHeap                                   0x20001000   Data       15360  heap_4.o(.ARM.__AT_0x20001000)

    Global Symbols

    Symbol Name                              Value     Ov Type        Size  Object(Section)

    BuildAttributes$$THM_ISAv4$P$D$K$B$S$PE$A:L22UL41UL21$X:L11$S22US41US21$IEEE1$IW$USESV6$~STKCKD$USESV7$~SHL$OSPACE$ROPI$EBA8$MICROLIB$REQ8$PRES8$EABIv2 0x00000000   Number         0  anon$$obj.o ABSOLUTE
    __ARM_use_no_argv                        0x00000000   Number         0  main.o ABSOLUTE
    __use_no_errno                           0x00000000   Number         0  useno.o ABSOLUTE
    __use_no_exception_handling              0x00000000   Number         0  useno.o ABSOLUTE
    __use_no_fp                              0x00000000   Number         0  useno.o ABSOLUTE
    __use_no_heap                            0x00000000   Number         0  useno.o ABSOLUTE
    __use_no_heap_region                     0x00000000   Number         0  useno.o ABSOLUTE
    __use_no_semihosting                     0x00000000   Number         0  useno.o ABSOLUTE
    __use_no_semihosting_swi                 0x00000000   Number         0  useno.o ABSOLUTE
    __use_no_signal_handling                 0x00000000   Number         0  useno.o ABSOLUTE
    _printf_a                                0x00000000   Number         0  stubs.o ABSOLUTE
    _printf_c                                0x00000000   Number         0  stubs.o ABSOLUTE
    _printf_charcount                        0x00000000   Number         0  stubs.o ABSOLUTE
    _printf_d                                0x00000000   Number         0  stubs.o ABSOLUTE
    _printf_e                                0x00000000   Number         0  stubs.o ABSOLUTE
    _printf_f                                0x00000000   Number         0  stubs.o ABSOLUTE
    _printf_flags                            0x00000000   Number         0  stubs.o ABSOLUTE
    _printf_fp_dec                           0x00000000   Number         0  stubs.o ABSOLUTE
    _printf_fp_hex                           0x00000000   Number         0  stubs.o ABSOLUTE
    _printf_g                                0x00000000   Number         0  stubs.o ABSOLUTE
    _printf_i                                0x00000000   Number         0  stubs.o ABSOLUTE
    _printf_int_dec                          0x00000000   Number         0  stubs.o ABSOLUTE
    _printf_l                                0x00000000   Number         0  stubs.o ABSOLUTE
    _printf_lc                               0x00000000   Number         0  stubs.o ABSOLUTE
    _printf_ll                               0x00000000   Number         0  stubs.o ABSOLUTE
    _printf_lld                              0x00000000   Number         0  stubs.o ABSOLUTE
    _printf_lli                              0x00000000   Number         0  stubs.o ABSOLUTE
    _printf_llo                              0x00000000   Number         0  stubs.o ABSOLUTE
    _printf_llu                              0x00000000   Number         0  stubs.o ABSOLUTE
    _printf_llx                              0x00000000   Number         0  stubs.o ABSOLUTE
    _printf_longlong_dec                     0x00000000   Number         0  stubs.o ABSOLUTE
    _printf_longlong_hex                     0x00000000   Number         0  stubs.o ABSOLUTE
    _printf_longlong_oct                     0x00000000   Number         0  stubs.o ABSOLUTE
    _printf_ls                               0x00000000   Number         0  stubs.o ABSOLUTE
    _printf_mbtowc                           0x00000000   Number         0  stubs.o ABSOLUTE
    _printf_n                                0x00000000   Number         0  stubs.o ABSOLUTE
    _printf_o                                0x00000000   Number         0  stubs.o ABSOLUTE
    _printf_p                                0x00000000   Number         0  stubs.o ABSOLUTE
    _printf_percent                          0x00000000   Number         0  stubs.o ABSOLUTE
    _printf_pre_padding                      0x00000000   Number         0  stubs.o ABSOLUTE
    _printf_return_value                     0x00000000   Number         0  stubs.o ABSOLUTE
    _printf_s                                0x00000000   Number         0  stubs.o ABSOLUTE
    _printf_sizespec                         0x00000000   Number         0  stubs.o ABSOLUTE
    _printf_str                              0x00000000   Number         0  stubs.o ABSOLUTE
    _printf_truncate_signed                  0x00000000   Number         0  stubs.o ABSOLUTE
    _printf_truncate_unsigned                0x00000000   Number         0  stubs.o ABSOLUTE
    _printf_u                                0x00000000   Number         0  stubs.o ABSOLUTE
    _printf_wc                               0x00000000   Number         0  stubs.o ABSOLUTE
    _printf_wctomb                           0x00000000   Number         0  stubs.o ABSOLUTE
    _printf_widthprec                        0x00000000   Number         0  stubs.o ABSOLUTE
    _printf_x                                0x00000000   Number         0  stubs.o ABSOLUTE
    __arm_fini_                               - Undefined Weak Reference
    __cpp_initialize__aeabi_                  - Undefined Weak Reference
    __cxa_finalize                            - Undefined Weak Reference
    _clock_init                               - Undefined Weak Reference
    _microlib_exit                            - Undefined Weak Reference
    __Vectors_Size                           0x000000ec   Number         0  startup_stm32f10x_md.o ABSOLUTE
    __Vectors                                0x08000000   Data           4  startup_stm32f10x_md.o(RESET)
    __Vectors_End                            0x080000ec   Data           0  startup_stm32f10x_md.o(RESET)
    __main                                   0x080000ed   Thumb Code     0  entry.o(.ARM.Collect$$$$00000000)
    _main_stk                                0x080000ed   Thumb Code     0  entry2.o(.ARM.Collect$$$$00000001)
    _main_scatterload                        0x080000f1   Thumb Code     0  entry5.o(.ARM.Collect$$$$00000004)
    __main_after_scatterload                 0x080000f5   Thumb Code     0  entry5.o(.ARM.Collect$$$$00000004)
    _main_clock                              0x080000f5   Thumb Code     0  entry7b.o(.ARM.Collect$$$$00000008)
    _main_cpp_init                           0x080000f5   Thumb Code     0  entry8b.o(.ARM.Collect$$$$0000000A)
    _main_init                               0x080000f5   Thumb Code     0  entry9a.o(.ARM.Collect$$$$0000000B)
    __rt_lib_shutdown_fini                   0x080000fd   Thumb Code     0  entry12b.o(.ARM.Collect$$$$0000000E)
    __rt_final_cpp                           0x08000101   Thumb Code     0  entry10a.o(.ARM.Collect$$$$0000000F)
    __rt_final_exit                          0x08000101   Thumb Code     0  entry11a.o(.ARM.Collect$$$$00000011)
    main                                     0x08000105   Thumb Code    84  main.o(.text)
    NMI_Handler                              0x0800017d   Thumb Code     2  stm32f10x_it.o(.text)
    HardFault_Handler                        0x0800017f   Thumb Code     2  stm32f10x_it.o(.text)
    MemManage_Handler                        0x08000181   Thumb Code     2  stm32f10x_it.o(.text)
    BusFault_Handler                         0x08000183   Thumb Code     2  stm32f10x_it.o(.text)
    UsageFault_Handler                       0x08000185   Thumb Code     2  stm32f10x_it.o(.text)
    SVC_Handler                              0x08000187   Thumb Code     2  stm32f10x_it.o(.text)
    DebugMon_Handler                         0x08000189   Thumb Code     2  stm32f10x_it.o(.text)
    PendSV_Handler                           0x0800018b   Thumb Code     2  stm32f10x_it.o(.text)
    SysTick_Handler                          0x0800018d   Thumb Code     2  stm32f10x_it.o(.text)
    SystemInit                               0x08000231   Thumb Code    64  system_stm32f10x.o(.text)
    SystemCoreClockUpdate                    0x08000271   Thumb Code    84  system_stm32f10x.o(.text)
    pvPortMalloc                             0x0800032d   Thumb Code   140  heap_4.o(.text)
    vPortFree                                0x080003b9   Thumb Code    46  heap_4.o(.text)
    xPortGetFreeHeapSize                     0x080003e7   Thumb Code     8  heap_4.o(.text)
    xPortGetMinimumEverFreeHeapSize          0x080003ef   Thumb Code     8  heap_4.o(.text)
    vPortInitialiseBlocks                    0x080003f7   Thumb Code     2  heap_4.o(.text)
    delay_init                               0x08000445   Thumb Code    46  delay.o(.text)
    delay_us                                 0x08000473   Thumb Code    46  delay.o(.text)
    delay_ms                                 0x080004a1   Thumb Code    46  delay.o(.text)
    _sys_exit                                0x080004dd   Thumb Code     2  usart.o(.text)
    fputc                                    0x080004df   Thumb Code    18  usart.o(.text)
    uart_init                                0x080004f1   Thumb Code   152  usart.o(.text)
    Reset_Handler                            0x08000591   Thumb Code     8  startup_stm32f10x_md.o(.text)
    ADC1_2_IRQHandler                        0x080005ab   Thumb Code     0  startup_stm32f10x_md.o(.text)
    CAN1_RX1_IRQHandler                      0x080005ab   Thumb Code     0  startup_stm32f10x_md.o(.text)
    CAN1_SCE_IRQHandler                      0x080005ab   Thumb Code     0  startup_stm32f10x_md.o(.text)
    DMA1_Channel1_IRQHandler                 0x080005ab   Thumb Code     0  startup_stm32f10x_md.o(.text)
    DMA1_Channel2_IRQHandler                 0x080005ab   Thumb Code     0  startup_stm32f10x_md.o(.text)
    DMA1_Channel3_IRQHandler                 0x080005ab   Thumb Code     0  startup_stm32f10x_md.o(.text)
    DMA1_Channel4_IRQHandler                 0x080005ab   Thumb Code     0  startup_stm32f10x_md.o(.text)
    DMA1_Channel5_IRQHandler                 0x080005ab   Thumb Code     0  startup_stm32f10x_md.o(.text)
    DMA1_Channel6_IRQHandler                 0x080005ab   Thumb Code     0  startup_stm32f10x_md.o(.text)
    DMA1_Channel7_IRQHandler                 0x080005ab   Thumb Code     0  startup_stm32f10x_md.o(.text)
    EXTI0_IRQHandler                         0x080005ab   Thumb Code     0  startup_stm32f10x_md.o(.text)
    EXTI15_10_IRQHandler                     0x080005ab   Thumb Code     0  startup_stm32f10x_md.o(.text)
    EXTI1_IRQHandler                         0x080005ab   Thumb Code     0  startup_stm32f10x_md.o(.text)
    EXTI2_IRQHandler                         0x080005ab   Thumb Code     0  startup_stm32f10x_md.o(.text)
    EXTI3_IRQHandler                         0x080005ab   Thumb Code     0  startup_stm32f10x_md.o(.text)
    EXTI4_IRQHandler                         0x080005ab   Thumb Code     0  startup_stm32f10x_md.o(.text)
    EXTI9_5_IRQHandler                       0x080005ab   Thumb Code     0  startup_stm32f10x_md.o(.text)
    FLASH_IRQHandler                         0x080005ab   Thumb Code     0  startup_stm32f10x_md.o(.text)
    I2C1_ER_IRQHandler                       0x080005ab   Thumb Code     0  startup_stm32f10x_md.o(.text)
    I2C1_EV_IRQHandler                       0x080005ab   Thumb Code     0  startup_stm32f10x_md.o(.text)
    I2C2_ER_IRQHandler                       0x080005ab   Thumb Code     0  startup_stm32f10x_md.o(.text)
    I2C2_EV_IRQHandler                       0x080005ab   Thumb Code     0  startup_stm32f10x_md.o(.text)
    PVD_IRQHandler                           0x080005ab   Thumb Code     0  startup_stm32f10x_md.o(.text)
    RCC_IRQHandler                           0x080005ab   Thumb Code     0  startup_stm32f10x_md.o(.text)
    RTCAlarm_IRQHandler                      0x080005ab   Thumb Code     0  startup_stm32f10x_md.o(.text)
    RTC_IRQHandler                           0x080005ab   Thumb Code     0  startup_stm32f10x_md.o(.text)
    SPI1_IRQHandler                          0x080005ab   Thumb Code     0  startup_stm32f10x_md.o(.text)
    SPI2_IRQHandler                          0x080005ab   Thumb Code     0  startup_stm32f10x_md.o(.text)
    TAMPER_IRQHandler                        0x080005ab   Thumb Code     0  startup_stm32f10x_md.o(.text)
    TIM1_BRK_IRQHandler                      0x080005ab   Thumb Code     0  startup_stm32f10x_md.o(.text)
    TIM1_CC_IRQHandler                       0x080005ab   Thumb Code     0  startup_stm32f10x_md.o(.text)
    TIM1_TRG_COM_IRQHandler                  0x080005ab   Thumb Code     0  startup_stm32f10x_md.o(.text)
    TIM1_UP_IRQHandler                       0x080005ab   Thumb Code     0  startup_stm32f10x_md.o(.text)
    TIM2_IRQHandler                          0x080005ab   Thumb Code     0  startup_stm32f10x_md.o(.text)
    TIM3_IRQHandler                          0x080005ab   Thumb Code     0  startup_stm32f10x_md.o(.text)
    TIM4_IRQHandler                          0x080005ab   Thumb Code     0  startup_stm32f10x_md.o(.text)
    USART1_IRQHandler                        0x080005ab   Thumb Code     0  startup_stm32f10x_md.o(.text)
    USART2_IRQHandler                        0x080005ab   Thumb Code     0  startup_stm32f10x_md.o(.text)
    USART3_IRQHandler                        0x080005ab   Thumb Code     0  startup_stm32f10x_md.o(.text)
    USBWakeUp_IRQHandler                     0x080005ab   Thumb Code     0  startup_stm32f10x_md.o(.text)
    USB_HP_CAN1_TX_IRQHandler                0x080005ab   Thumb Code     0  startup_stm32f10x_md.o(.text)
    USB_LP_CAN1_RX0_IRQHandler               0x080005ab   Thumb Code     0  startup_stm32f10x_md.o(.text)
    WWDG_IRQHandler                          0x080005ab   Thumb Code     0  startup_stm32f10x_md.o(.text)
    NVIC_PriorityGroupConfig                 0x080005b5   Thumb Code    10  misc.o(.text)
    NVIC_Init                                0x080005bf   Thumb Code    94  misc.o(.text)
    NVIC_SetVectorTable                      0x0800061d   Thumb Code    14  misc.o(.text)
    NVIC_SystemLPConfig                      0x0800062b   Thumb Code    20  misc.o(.text)
    SysTick_CLKSourceConfig                  0x0800063f   Thumb Code    24  misc.o(.text)
    GPIO_DeInit                              0x08000665   Thumb Code   152  stm32f10x_gpio.o(.text)
    GPIO_AFIODeInit                          0x080006fd   Thumb Code    22  stm32f10x_gpio.o(.text)
    GPIO_Init                                0x08000713   Thumb Code   164  stm32f10x_gpio.o(.text)
    GPIO_StructInit                          0x080007b7   Thumb Code    16  stm32f10x_gpio.o(.text)
    GPIO_ReadInputDataBit                    0x080007c7   Thumb Code    14  stm32f10x_gpio.o(.text)
    GPIO_ReadInputData                       0x080007d5   Thumb Code     6  stm32f10x_gpio.o(.text)
    GPIO_ReadOutputDataBit                   0x080007db   Thumb Code    14  stm32f10x_gpio.o(.text)
    GPIO_ReadOutputData                      0x080007e9   Thumb Code     6  stm32f10x_gpio.o(.text)
    GPIO_SetBits                             0x080007ef   Thumb Code     4  stm32f10x_gpio.o(.text)
    GPIO_ResetBits                           0x080007f3   Thumb Code     4  stm32f10x_gpio.o(.text)
    GPIO_WriteBit                            0x080007f7   Thumb Code    10  stm32f10x_gpio.o(.text)
    GPIO_Write                               0x08000801   Thumb Code     4  stm32f10x_gpio.o(.text)
    GPIO_PinLockConfig                       0x08000805   Thumb Code    16  stm32f10x_gpio.o(.text)
    GPIO_EventOutputConfig                   0x08000815   Thumb Code    22  stm32f10x_gpio.o(.text)
    GPIO_EventOutputCmd                      0x0800082b   Thumb Code     6  stm32f10x_gpio.o(.text)
    GPIO_PinRemapConfig                      0x08000831   Thumb Code    82  stm32f10x_gpio.o(.text)
    GPIO_EXTILineConfig                      0x08000883   Thumb Code    34  stm32f10x_gpio.o(.text)
    GPIO_ETH_MediaInterfaceConfig            0x080008a5   Thumb Code     8  stm32f10x_gpio.o(.text)
    RCC_DeInit                               0x080008d1   Thumb Code    50  stm32f10x_rcc.o(.text)
    RCC_HSEConfig                            0x08000903   Thumb Code    48  stm32f10x_rcc.o(.text)
    RCC_GetFlagStatus                        0x08000933   Thumb Code    42  stm32f10x_rcc.o(.text)
    RCC_WaitForHSEStartUp                    0x0800095d   Thumb Code    44  stm32f10x_rcc.o(.text)
    RCC_AdjustHSICalibrationValue            0x08000989   Thumb Code    16  stm32f10x_rcc.o(.text)
    RCC_HSICmd                               0x08000999   Thumb Code     6  stm32f10x_rcc.o(.text)
    RCC_PLLConfig                            0x0800099f   Thumb Code    16  stm32f10x_rcc.o(.text)
    RCC_PLLCmd                               0x080009af   Thumb Code     6  stm32f10x_rcc.o(.text)
    RCC_SYSCLKConfig                         0x080009b5   Thumb Code    14  stm32f10x_rcc.o(.text)
    RCC_GetSYSCLKSource                      0x080009c3   Thumb Code    10  stm32f10x_rcc.o(.text)
    RCC_HCLKConfig                           0x080009cd   Thumb Code    14  stm32f10x_rcc.o(.text)
    RCC_PCLK1Config                          0x080009db   Thumb Code    14  stm32f10x_rcc.o(.text)
    RCC_PCLK2Config                          0x080009e9   Thumb Code    16  stm32f10x_rcc.o(.text)
    RCC_ITConfig                             0x080009f9   Thumb Code    18  stm32f10x_rcc.o(.text)
    RCC_USBCLKConfig                         0x08000a0b   Thumb Code     8  stm32f10x_rcc.o(.text)
    RCC_ADCCLKConfig                         0x08000a13   Thumb Code    14  stm32f10x_rcc.o(.text)
    RCC_LSEConfig                            0x08000a21   Thumb Code    28  stm32f10x_rcc.o(.text)
    RCC_LSICmd                               0x08000a3d   Thumb Code     6  stm32f10x_rcc.o(.text)
    RCC_RTCCLKConfig                         0x08000a43   Thumb Code    10  stm32f10x_rcc.o(.text)
    RCC_RTCCLKCmd                            0x08000a4d   Thumb Code     8  stm32f10x_rcc.o(.text)
    RCC_GetClocksFreq                        0x08000a55   Thumb Code   128  stm32f10x_rcc.o(.text)
    RCC_AHBPeriphClockCmd                    0x08000ad5   Thumb Code    18  stm32f10x_rcc.o(.text)
    RCC_APB2PeriphClockCmd                   0x08000ae7   Thumb Code    18  stm32f10x_rcc.o(.text)
    RCC_APB1PeriphClockCmd                   0x08000af9   Thumb Code    18  stm32f10x_rcc.o(.text)
    RCC_APB2PeriphResetCmd                   0x08000b0b   Thumb Code    18  stm32f10x_rcc.o(.text)
    RCC_APB1PeriphResetCmd                   0x08000b1d   Thumb Code    18  stm32f10x_rcc.o(.text)
    RCC_BackupResetCmd                       0x08000b2f   Thumb Code     8  stm32f10x_rcc.o(.text)
    RCC_ClockSecuritySystemCmd               0x08000b37   Thumb Code     6  stm32f10x_rcc.o(.text)
    RCC_MCOConfig                            0x08000b3d   Thumb Code     6  stm32f10x_rcc.o(.text)
    RCC_ClearFlag                            0x08000b43   Thumb Code    12  stm32f10x_rcc.o(.text)
    RCC_GetITStatus                          0x08000b4f   Thumb Code    16  stm32f10x_rcc.o(.text)
    RCC_ClearITPendingBit                    0x08000b5f   Thumb Code     6  stm32f10x_rcc.o(.text)
    USART_DeInit                             0x08000b85   Thumb Code    96  stm32f10x_usart.o(.text)
    USART_Init                               0x08000be5   Thumb Code   166  stm32f10x_usart.o(.text)
    USART_StructInit                         0x08000c8b   Thumb Code    22  stm32f10x_usart.o(.text)
    USART_ClockInit                          0x08000ca1   Thumb Code    30  stm32f10x_usart.o(.text)
    USART_ClockStructInit                    0x08000cbf   Thumb Code    12  stm32f10x_usart.o(.text)
    USART_Cmd                                0x08000ccb   Thumb Code    20  stm32f10x_usart.o(.text)
    USART_ITConfig                           0x08000cdf   Thumb Code    48  stm32f10x_usart.o(.text)
    USART_DMACmd                             0x08000d0f   Thumb Code    16  stm32f10x_usart.o(.text)
    USART_SetAddress                         0x08000d1f   Thumb Code    16  stm32f10x_usart.o(.text)
    USART_WakeUpConfig                       0x08000d2f   Thumb Code    16  stm32f10x_usart.o(.text)
    USART_ReceiverWakeUpCmd                  0x08000d3f   Thumb Code    20  stm32f10x_usart.o(.text)
    USART_LINBreakDetectLengthConfig         0x08000d53   Thumb Code    16  stm32f10x_usart.o(.text)
    USART_LINCmd                             0x08000d63   Thumb Code    20  stm32f10x_usart.o(.text)
    USART_SendData                           0x08000d77   Thumb Code     8  stm32f10x_usart.o(.text)
    USART_ReceiveData                        0x08000d7f   Thumb Code     8  stm32f10x_usart.o(.text)
    USART_SendBreak                          0x08000d87   Thumb Code    10  stm32f10x_usart.o(.text)
    USART_SetGuardTime                       0x08000d91   Thumb Code    16  stm32f10x_usart.o(.text)
    USART_SetPrescaler                       0x08000da1   Thumb Code    16  stm32f10x_usart.o(.text)
    USART_SmartCardCmd                       0x08000db1   Thumb Code    20  stm32f10x_usart.o(.text)
    USART_SmartCardNACKCmd                   0x08000dc5   Thumb Code    20  stm32f10x_usart.o(.text)
    USART_HalfDuplexCmd                      0x08000dd9   Thumb Code    20  stm32f10x_usart.o(.text)
    USART_OverSampling8Cmd                   0x08000ded   Thumb Code    20  stm32f10x_usart.o(.text)
    USART_OneBitMethodCmd                    0x08000e01   Thumb Code    20  stm32f10x_usart.o(.text)
    USART_IrDAConfig                         0x08000e15   Thumb Code    16  stm32f10x_usart.o(.text)
    USART_IrDACmd                            0x08000e25   Thumb Code    20  stm32f10x_usart.o(.text)
    USART_GetFlagStatus                      0x08000e39   Thumb Code    14  stm32f10x_usart.o(.text)
    USART_ClearFlag                          0x08000e47   Thumb Code     6  stm32f10x_usart.o(.text)
    USART_GetITStatus                        0x08000e4d   Thumb Code    62  stm32f10x_usart.o(.text)
    USART_ClearITPendingBit                  0x08000e8b   Thumb Code    12  stm32f10x_usart.o(.text)
    hpatchi_patch                            0x08000f0f   Thumb Code   272  hpatchi.o(.text)
    hpatchi                                  0x0800101f   Thumb Code   236  hpatchi.o(.text)
    tuz_TStream_read_dict_size               0x080013e7   Thumb Code   116  tuz_dec.o(.text)
    tuz_TStream_open                         0x0800145b   Thumb Code    68  tuz_dec.o(.text)
    tuz_TStream_decompress_partial           0x0800149f   Thumb Code   438  tuz_dec.o(.text)
    tuz_decompress_mem                       0x08001695   Thumb Code   324  tuz_dec.o(.text)
    _import_fileRead                         0x080018d9   Thumb Code    68  file_for_patch.o(.text)
    _import_fileOpenRead                     0x0800191d   Thumb Code     4  file_for_patch.o(.text)
    _import_fileOpenCreateOrReWrite          0x08001921   Thumb Code    26  file_for_patch.o(.text)
    _import_fileReopenWrite                  0x0800193b   Thumb Code     4  file_for_patch.o(.text)
    hpatch_TFileStreamInput_open             0x080019cb   Thumb Code    42  file_for_patch.o(.text)
    hpatch_TFileStreamInput_close            0x080019f5   Thumb Code    64  file_for_patch.o(.text)
    hpatch_TFileStreamOutput_open            0x08001a35   Thumb Code    40  file_for_patch.o(.text)
    _hpi_cache_update                        0x08001aa9   Thumb Code    52  hpatch_lite.o(.text)
    _hpi_cache_read_1byte                    0x08001add   Thumb Code    34  hpatch_lite.o(.text)
    hpatch_lite_open                         0x08001aff   Thumb Code   188  hpatch_lite.o(.text)
    hpatch_lite_patch                        0x08001bbb   Thumb Code   286  hpatch_lite.o(.text)
    __aeabi_memcpy                           0x08001d95   Thumb Code    36  memcpya.o(.text)
    __aeabi_memcpy4                          0x08001d95   Thumb Code     0  memcpya.o(.text)
    __aeabi_memcpy8                          0x08001d95   Thumb Code     0  memcpya.o(.text)
    __aeabi_memset                           0x08001db9   Thumb Code    14  memseta.o(.text)
    __aeabi_memset4                          0x08001db9   Thumb Code     0  memseta.o(.text)
    __aeabi_memset8                          0x08001db9   Thumb Code     0  memseta.o(.text)
    __aeabi_memclr                           0x08001dc7   Thumb Code     4  memseta.o(.text)
    __aeabi_memclr4                          0x08001dc7   Thumb Code     0  memseta.o(.text)
    __aeabi_memclr8                          0x08001dc7   Thumb Code     0  memseta.o(.text)
    _memset$wrapper                          0x08001dcb   Thumb Code    18  memseta.o(.text)
    strerror                                 0x08001ddd   Thumb Code    40  strerror.o(.text)
    __aeabi_uldivmod                         0x08001ec1   Thumb Code    98  uldiv.o(.text)
    __scatterload                            0x08001f25   Thumb Code    28  init.o(.text)
    __scatterload_rt2                        0x08001f25   Thumb Code     0  init.o(.text)
    __aeabi_llsl                             0x08001f49   Thumb Code    30  llshl.o(.text)
    _ll_shift_l                              0x08001f49   Thumb Code     0  llshl.o(.text)
    __aeabi_llsr                             0x08001f67   Thumb Code    32  llushr.o(.text)
    _ll_ushift_r                             0x08001f67   Thumb Code     0  llushr.o(.text)
    __decompress                             0x08001f87   Thumb Code     0  __dclz77c.o(.text)
    __decompress2                            0x08001f87   Thumb Code    94  __dclz77c.o(.text)
    __0fprintf$5                             0x08001fe5   Thumb Code    22  printf5.o(i.__0fprintf$5)
    __1fprintf$5                             0x08001fe5   Thumb Code     0  printf5.o(i.__0fprintf$5)
    __2fprintf                               0x08001fe5   Thumb Code     0  printf5.o(i.__0fprintf$5)
    __0printf$5                              0x08002001   Thumb Code    22  printf5.o(i.__0printf$5)
    __1printf$5                              0x08002001   Thumb Code     0  printf5.o(i.__0printf$5)
    __2printf                                0x08002001   Thumb Code     0  printf5.o(i.__0printf$5)
    __aeabi_errno_addr                       0x08002021   Thumb Code     4  errno.o(i.__aeabi_errno_addr)
    __rt_errno_addr                          0x08002021   Thumb Code     0  errno.o(i.__aeabi_errno_addr)
    __scatterload_copy                       0x08002029   Thumb Code    14  handlers.o(i.__scatterload_copy)
    __scatterload_null                       0x08002037   Thumb Code     2  handlers.o(i.__scatterload_null)
    __scatterload_zeroinit                   0x08002039   Thumb Code    14  handlers.o(i.__scatterload_zeroinit)
    Region$$Table$$Base                      0x08002308   Number         0  anon$$obj.o(Region$$Table)
    Region$$Table$$Limit                     0x08002328   Number         0  anon$$obj.o(Region$$Table)
    old                                      0x20000004   Data           4  main.o(.data)
    SystemCoreClock                          0x20000168   Data           4  system_stm32f10x.o(.data)
    AHBPrescTable                            0x2000016c   Data          16  system_stm32f10x.o(.data)
    __stdout                                 0x20000198   Data           4  usart.o(.data)
    outsum                                   0x200001b0   Data           4  hpatchi.o(.data)
    __stderr                                 0x20000320   Data           4  stderr.o(.data)
    __initial_sp                             0x20000728   Data           0  startup_stm32f10x_md.o(STACK)



==============================================================================

Memory Map of the image

  Image Entry point : 0x080000ed

  Load Region LR_IROM1 (Base: 0x08000000, Size: 0x00002650, Max: 0x00020000, ABSOLUTE, COMPRESSED[0x000024b4])

    Execution Region ER_IROM1 (Exec base: 0x08000000, Load base: 0x08000000, Size: 0x00002328, Max: 0x00020000, ABSOLUTE)

    Exec Addr    Load Addr    Size         Type   Attr      Idx    E Section Name        Object

    0x08000000   0x08000000   0x000000ec   Data   RO          249    RESET               startup_stm32f10x_md.o
    0x080000ec   0x080000ec   0x00000000   Code   RO          464  * .ARM.Collect$$$$00000000  mc_w.l(entry.o)
    0x080000ec   0x080000ec   0x00000004   Code   RO          750    .ARM.Collect$$$$00000001  mc_w.l(entry2.o)
    0x080000f0   0x080000f0   0x00000004   Code   RO          753    .ARM.Collect$$$$00000004  mc_w.l(entry5.o)
    0x080000f4   0x080000f4   0x00000000   Code   RO          755    .ARM.Collect$$$$00000008  mc_w.l(entry7b.o)
    0x080000f4   0x080000f4   0x00000000   Code   RO          757    .ARM.Collect$$$$0000000A  mc_w.l(entry8b.o)
    0x080000f4   0x080000f4   0x00000008   Code   RO          758    .ARM.Collect$$$$0000000B  mc_w.l(entry9a.o)
    0x080000fc   0x080000fc   0x00000004   Code   RO          765    .ARM.Collect$$$$0000000E  mc_w.l(entry12b.o)
    0x08000100   0x08000100   0x00000000   Code   RO          760    .ARM.Collect$$$$0000000F  mc_w.l(entry10a.o)
    0x08000100   0x08000100   0x00000000   Code   RO          762    .ARM.Collect$$$$00000011  mc_w.l(entry11a.o)
    0x08000100   0x08000100   0x00000004   Code   RO          751    .ARM.Collect$$$$00002712  mc_w.l(entry2.o)
    0x08000104   0x08000104   0x00000078   Code   RO            1    .text               main.o
    0x0800017c   0x0800017c   0x00000012   Code   RO           79    .text               stm32f10x_it.o
    0x0800018e   0x0800018e   0x00000002   PAD
    0x08000190   0x08000190   0x00000154   Code   RO          111    .text               system_stm32f10x.o
    0x080002e4   0x080002e4   0x00000160   Code   RO          149    .text               heap_4.o
    0x08000444   0x08000444   0x00000098   Code   RO          187    .text               delay.o
    0x080004dc   0x080004dc   0x000000b4   Code   RO          218    .text               usart.o
    0x08000590   0x08000590   0x00000024   Code   RO          250    .text               startup_stm32f10x_md.o
    0x080005b4   0x080005b4   0x000000b0   Code   RO          254    .text               misc.o
    0x08000664   0x08000664   0x0000026c   Code   RO          278    .text               stm32f10x_gpio.o
    0x080008d0   0x080008d0   0x000002b4   Code   RO          290    .text               stm32f10x_rcc.o
    0x08000b84   0x08000b84   0x00000328   Code   RO          304    .text               stm32f10x_usart.o
    0x08000eac   0x08000eac   0x000004bc   Code   RO          329    .text               hpatchi.o
    0x08001368   0x08001368   0x0000056e   Code   RO          391    .text               tuz_dec.o
    0x080018d6   0x080018d6   0x00000002   PAD
    0x080018d8   0x080018d8   0x000001d0   Code   RO          415    .text               file_for_patch.o
    0x08001aa8   0x08001aa8   0x000002ec   Code   RO          442    .text               hpatch_lite.o
    0x08001d94   0x08001d94   0x00000024   Code   RO          474    .text               mc_w.l(memcpya.o)
    0x08001db8   0x08001db8   0x00000024   Code   RO          476    .text               mc_w.l(memseta.o)
    0x08001ddc   0x08001ddc   0x000000e4   Code   RO          478    .text               mc_w.l(strerror.o)
    0x08001ec0   0x08001ec0   0x00000062   Code   RO          768    .text               mc_w.l(uldiv.o)
    0x08001f22   0x08001f22   0x00000002   PAD
    0x08001f24   0x08001f24   0x00000024   Code   RO          781    .text               mc_w.l(init.o)
    0x08001f48   0x08001f48   0x0000001e   Code   RO          783    .text               mc_w.l(llshl.o)
    0x08001f66   0x08001f66   0x00000020   Code   RO          785    .text               mc_w.l(llushr.o)
    0x08001f86   0x08001f86   0x0000005e   Code   RO          799    .text               mc_w.l(__dclz77c.o)
    0x08001fe4   0x08001fe4   0x0000001c   Code   RO          614    i.__0fprintf$5      mc_w.l(printf5.o)
    0x08002000   0x08002000   0x00000020   Code   RO          615    i.__0printf$5       mc_w.l(printf5.o)
    0x08002020   0x08002020   0x00000008   Code   RO          743    i.__aeabi_errno_addr  mc_w.l(errno.o)
    0x08002028   0x08002028   0x0000000e   Code   RO          793    i.__scatterload_copy  mc_w.l(handlers.o)
    0x08002036   0x08002036   0x00000002   Code   RO          794    i.__scatterload_null  mc_w.l(handlers.o)
    0x08002038   0x08002038   0x0000000e   Code   RO          795    i.__scatterload_zeroinit  mc_w.l(handlers.o)
    0x08002046   0x08002046   0x00000002   PAD
    0x08002048   0x08002048   0x000002c0   Code   RO          622    i._printf_core      mc_w.l(printf5.o)
    0x08002308   0x08002308   0x00000020   Data   RO          791    Region$$Table       anon$$obj.o


    Execution Region RW_IRAM1 (Exec base: 0x20000000, Load base: 0x08002328, Size: 0x00004c00, Max: 0x00005000, ABSOLUTE, COMPRESSED[0x0000018c])

    Exec Addr    Load Addr    Size         Type   Attr      Idx    E Section Name        Object

    0x20000000   COMPRESSED   0x00000165   Data   RW            2    .data               main.o
    0x20000165   COMPRESSED   0x00000003   PAD
    0x20000168   COMPRESSED   0x00000014   Data   RW          112    .data               system_stm32f10x.o
    0x2000017c   COMPRESSED   0x00000018   Data   RW          151    .data               heap_4.o
    0x20000194   COMPRESSED   0x00000004   Data   RW          188    .data               delay.o
    0x20000198   COMPRESSED   0x00000004   Data   RW          219    .data               usart.o
    0x2000019c   COMPRESSED   0x00000014   Data   RW          291    .data               stm32f10x_rcc.o
    0x200001b0   COMPRESSED   0x00000165   Data   RW          330    .data               hpatchi.o
    0x20000315   COMPRESSED   0x00000003   PAD
    0x20000318   COMPRESSED   0x00000008   Data   RW          416    .data               file_for_patch.o
    0x20000320   COMPRESSED   0x00000004   Data   RW          471    .data               mc_w.l(stderr.o)
    0x20000324   COMPRESSED   0x00000004   Data   RW          746    .data               mc_w.l(errno.o)
    0x20000328        -       0x00000400   Zero   RW          247    STACK               startup_stm32f10x_md.o
    0x20000728   COMPRESSED   0x000008d8   PAD
    0x20001000        -       0x00003c00   Zero   RW          150    .ARM.__AT_0x20001000  heap_4.o


==============================================================================

Image component sizes


      Code (inc. data)   RO Data    RW Data    ZI Data      Debug   Object Name

       152         14          0          4          0       1043   delay.o
       464         76          0          8          0      11581   file_for_patch.o
       352         10          0         24      15360       4544   heap_4.o
       748          0          0          0          0       7639   hpatch_lite.o
      1212        606          0        357          0      19675   hpatchi.o
       120         36          0        357          0     234925   main.o
       176         14          0          0          0       1813   misc.o
        36          8        236          0       1024        772   startup_stm32f10x_md.o
       620         36          0          0          0       5781   stm32f10x_gpio.o
        18          0          0          0          0       1142   stm32f10x_it.o
       692         32          0         20          0       8916   stm32f10x_rcc.o
       808         22          0          0          0       8700   stm32f10x_usart.o
         0          0          0          0          0         32   sys.o
       340         32          0         20          0       1695   system_stm32f10x.o
      1390          0          0          0          0      11644   tuz_dec.o
       180          8          0          4          0       2766   usart.o

    ----------------------------------------------------------------------
      7312        894        268        800      18648     322668   Object Totals
         0          0         32          0          0          0   (incl. Generated)
         4          0          0          6       2264          0   (incl. Padding)

    ----------------------------------------------------------------------

      Code (inc. data)   RO Data    RW Data    ZI Data      Debug   Library Member Name

        94          0          0          0          0          0   __dclz77c.o
         0          0          0          0          0          0   entry.o
         0          0          0          0          0          0   entry10a.o
         0          0          0          0          0          0   entry11a.o
         4          0          0          0          0          0   entry12b.o
         8          4          0          0          0          0   entry2.o
         4          0          0          0          0          0   entry5.o
         0          0          0          0          0          0   entry7b.o
         0          0          0          0          0          0   entry8b.o
         8          4          0          0          0          0   entry9a.o
         8          4          0          4          0         68   errno.o
        30          0          0          0          0          0   handlers.o
        36          8          0          0          0         68   init.o
        30          0          0          0          0         68   llshl.o
        32          0          0          0          0         68   llushr.o
        36          0          0          0          0         68   memcpya.o
        36          0          0          0          0        108   memseta.o
       764         60          0          0          0        268   printf5.o
         0          0          0          4          0          0   stderr.o
       228        196          0          0          0         68   strerror.o
        98          0          0          0          0         92   uldiv.o

    ----------------------------------------------------------------------
      1420        276          0          8          0        876   Library Totals
         4          0          0          0          0          0   (incl. Padding)

    ----------------------------------------------------------------------

      Code (inc. data)   RO Data    RW Data    ZI Data      Debug   Library Name

      1416        276          0          8          0        876   mc_w.l

    ----------------------------------------------------------------------
      1420        276          0          8          0        876   Library Totals

    ----------------------------------------------------------------------

==============================================================================


      Code (inc. data)   RO Data    RW Data    ZI Data      Debug   

      8732       1170        268        808      18648     321800   Grand Totals
      8732       1170        268        396      18648     321800   ELF Image Totals (compressed)
      8732       1170        268        396          0          0   ROM Totals

==============================================================================

    Total RO  Size (Code + RO Data)                 9000 (   8.79kB)
    Total RW  Size (RW Data + ZI Data)             19456 (  19.00kB)
    Total ROM Size (Code + RO Data + RW Data)       9396 (   9.18kB)

==============================================================================

